:020000040000FA
:0400000080312628FD
:100008007E1480318B1E09280A2812280B1D0D2802
:100018000E28122883317023803124280B1F1528BD
:10002800162824282100131E1A281B2824282000FB
:10003800131E1F28202824288331AB23803124282D
:100048007E100900803128285030840082308500D5
:10005800A030860000308700403084310024803191
:10006800F001F101F201F301F401F50120308400FF
:100078000030850024308431062480317E10200031
:100088008231902A20003F08A03E8600870101089F
:10009800C9002A0849060319522853285428122946
:1000A800BE01BF1E582859285C2822008C145E28DF
:1000B80022008C102000BF196228632875283F1978
:1000C8006628672875283F1A6A286B287528220031
:1000D8000C1400302000C400C50083313B2380315C
:1000E8000129BF19782879289F283F197C287D285D
:1000F8009F283F1E802881289F283130250011061F
:1001080003198728882801297C30910022000C14C3
:1001180054302000C8001C30890B9028C80B902848
:100128000000C7302000C4000030C50083313B23E5
:10013800803101290129BF19A228A328B6283F1D0B
:10014800A628A728B6283F1AAA28AB28B62822002E
:100158000C10F3302000C4000130C50083313B236C
:1001680080310129BF19B928BA28C5283F1DBD28E3
:10017800BE28C5283F1EC128C228C52822000C1049
:10018800AD28BF1DC828C928D4283F19CC28CD2898
:10019800D4283F1AD028D128D42822000C14AD28FE
:1001A800BF1DD728D828E3283F19DB28DC28E328F7
:1001B8003F1EDF28E028E32822000C14AD28BF1DCD
:1001C800E628E728F2283F1DEA28EB28F2283F1AFC
:1001D800EE28EF28F22822000C10AD28BF1DF528C4
:1001E800F6289E283F1DF928FA289E283F1EFD283C
:1001F800FE289E2822000C10AD282000CA014A08BB
:10020800203E8600870181010130C8004808CA07DE
:100218000B304A02031C1129122903290800043053
:1002280026001306031D19291A29B0297708F10099
:100238007608F0000530930020003903031D2529B6
:100248002629DE29B9012C087102031D2D292B0846
:100258007002031C3029312938292B087002AD009F
:100268002C08713BAE0044292C08F9002B08F80033
:10027800F809F90970087807AD007108793DAE00F2
:100288003008F9002F08F800F936F80CF936F80CA0
:10029800F936F80C7808BB002E08F9002D08F8008C
:1002A800F936F80CF936F80CF936F80C7808F2003B
:1002B80072083B0203186129622966293B08720209
:1002C800BA00692972083B02BA003808031D6D2973
:1002D8006E297D2922000E16103020003A020318DC
:1002E80076297729DE29B801B80AB70122000E124B
:1002F800DE2910303A020318822983299329220023
:100308000E120130F8002000370A8B29F835890BC6
:100318008A297808FF3AF9007908F405A12922000A
:100328000E160130F8002000370A9B29F835890B92
:100338009A297808F9007908F4040130F800780857
:10034800B70708303702031CAA29AB29AF29B8011F
:100358000130C300DE29DE2905301306031DB52947
:10036800B629DE2977082000AC007608AB000430F7
:1003780026009300710820002C02031DC52970086F
:100388002B02031CC829C929D02970082B02AF00E9
:1003980071082C3BB000DC297108F9007008F800DE
:1003A800F809F9092B087807AF002C08793DB00047
:1003B800B901B90A080020004303031DE429E5290F
:1003C8004F2AC3012C2AC8307406031DEC29ED29D5
:1003D800F229C101C10A7408A0004F2AC1014F2A9D
:1003E8008B307406031DF929FA29F2297408A10033
:1003F8000230C1004F2A7408A2000330C1004F2AFE
:100408007408A3000430C1004F2A7408A400053002
:10041800C1004F2A7408A5000630C1004F2A74088D
:10042800A6000730C1004F2A7408A7000830C10091
:100438004F2A7408A8000930C1004F2A7408A9007F
:100448000A30C1004F2A7408AA00C201C20AF22960
:100458004108003A0319E729013A0319F429033A34
:100468000319FF29013A0319042A073A0319092A2B
:10047800013A03190E2A033A0319132A013A0319F8
:10048800182A0F3A03191D2A013A0319222A033A96
:100498000319272AF22908004C349F34ED343E34DE
:1004A8009A340034003400342734003400340034E3
:1004B8007334A034D23401348E345D342F34FC3498
:1004C8006734003400340034DA3400340034003443
:1004D800B13462341034C3342D34FE348C345F3478
:1004E8002C340034003400343834EB3499344A3432
:1004F8001234C134B3346034EF343C344E349D3458
:10050800D1340034003400346C3400340034003406
:10051800D03403347134A2348331572382319C3070
:100528002000C4000330C50084310C2482318B17AD
:100538000B1700302000C400C50083313B238231F3
:1005480022000C148131DF2182318231CE228231A6
:100558008231FF22823120003C08031DB42AB52ACB
:10056800C02A3D03031DB92ABA2ABC2ABD01A62AFE
:10057800803146208231A62ABC01F330C400013004
:10058800C50083313B23823122000C148C14A62A27
:100598008031262820002208F3002308C000BF016C
:1005A800731DD72AD82ADA2ABF16DB2ABF12F31DF1
:1005B800DE2ADF2AE12A3F16E22A3F12731EE52AC5
:1005C800E62AE82ABF15E92ABF11F31EEC2AED2A0C
:1005D800EF2A3F15F02A3F11C01EF32AF42AF62A03
:1005E800BF14F72ABF10401FFA2AFB2AFD2A3F141E
:1005F800FE2A3F100800063020002206031D052BA6
:10060800062B1C2BD5302A06031D0B2B0C2B1C2B61
:1006180022008C142000BD01BD0A0030C400C500B2
:1006280083313B23823122000C142000BE011D2B94
:10063800BD0108002200900101308C008D011030AE
:100648008E00083021009000FC308C00FF308D00B7
:10065800FB308E003F3023008D003F308C0024009B
:1006680090018D012100951722009D0108002000AE
:100678004508C7004408C600C736C60CC736C60CAE
:10068800460825009100200044080339C6000430BC
:10069800C635890B4C2B25001308CF39200046049A
:1006A80025009300080083311E2383318331E22320
:1006B80083318431122483318331BA2383318331E6
:1006C800F82383318331EE2383318331C823833187
:1006D80083318823833108000B11750820009500A9
:1006E8000130B1070030B23D003032020A30031940
:1006F8003102031C802B812B872B8331D523833137
:100708002000B101B201080021001508C0391438D1
:1007180095000630200095000630F5000B118B1669
:100728001630C4000430C50084310C24833108001D
:100738000130F60076082000BE07C8303E02031CD0
:10074800A62BA72BAA2BBC01BC0ABE0108002000BF
:10075800131226001108FA001208FB007B08F700A4
:100768007A08F60081311321833108003C302500D6
:100778009300950180309400013096009201C730B3
:100788009100FC309E050800103020009900970168
:10079800960111101708B6001608B5000130980028
:1007A80008002000330834040319DB2BDC2BE12B71
:1007B80034088A0033080A008331080070302100A9
:1007C800990098012200960121001A1FEC2BED2BAD
:1007D800E82B0800053026009300920191012000C3
:1007E80013122100131608007C3020009B009A0188
:1007F800911007309C000800FE0012001E00FE0B3E
:10080800012C0034640080010131890B072C00346D
:1008180020004508B4004408B30008001630210041
:0608280097000800080023
:020000040001F9
:04000E00C43FFF1FCD
:00000001FF
