:020000040000FA
:0400000080312628FD
:100008007E1480318B1E09280A2812280B1D0D2802
:100018000E2812288431D424803124280B1F152857
:10002800162824282100131E1A281B2824282000FB
:10003800131E1F282028242885319525803124283F
:100048007E1009008031282886318C268031CD0029
:10005800F001F101F201F301F401F501203084000F
:1000680000308500263086313C2680317E10200005
:100078008431EC2CF31E4128422846288631652617
:1000880080314928863168268031F3194C284D285B
:1000980063287319502851286328731A542855283F
:1000A8006328F31A58285928632886312426803172
:1000B80086316E26803186312C2680318629731947
:1000C800662867287D28F3196A286B287D28731A03
:1000D8006E286F287D28F31E722873287D288631A4
:1000E8002426803186316E2680318531F72580318E
:1000F80086297319802881289728F3198428852848
:100108009728731E882889289728F31A8C288D2801
:10011800972886312426803186316E2680318631B3
:1001280009268031862973199A289B28A828F3194B
:100138009E289F28A828731EA228A328A828F31E53
:10014800A628A728A8288D287319AB28AC28BC286E
:10015800F31DAF28B028BC28731AB328B428BC28CC
:10016800F31AB728B828BC288631002680315C28C5
:100178007319BF28C028D028F31DC328C428D02845
:10018800731AC728C828D028F31ECB28CC28D02813
:1001980086310026803176287319D328D428E1289F
:1001A800F31DD728D828E128731EDB28DC28E1288E
:1001B800F31ADF28E028E128CC287319E428E52879
:1001C800F228F31DE828E928F228731EEC28ED2808
:1001D800F228F31EF028F128F228CC28731DF52800
:1001E800F6280329F319F928FA280329731AFD2890
:1001F800FE280329F31A0129022903295928731D06
:10020800062907291429F3190A290B291429731A0D
:100218000E290F291429F31E1229132914297328CA
:10022800731D172918292529F3191B291C29252984
:10023800731E1F2920292529F31A23292429252952
:100248008D28731D282929293629F3192C292D29A8
:100258003629731E302931293629F31E34293529C8
:1002680036298D28731D39293A294D29F31D3D2931
:100278003E294D29731A412942294D29F31A452946
:1002880046294D2986310026803186316B268031FA
:100298005F28731D502951296429F31D54295529B4
:1002A8006429731A582959296429F31E5C295D2980
:1002B800642986310026803186316B268031792881
:1002C800731D672968297529F31D6B296C29752900
:1002D800731E6F2970297529F31A732974297529D2
:1002E8005D29731D782979298629F31D7C297D29A3
:1002F8008629731E802981298629F31E8429852948
:1003080086295D290800F31E8A298B298F298631C1
:10031800652681319229863168268131F31995291C
:100328009629A929731999299A29A929731A9D29FE
:100338009E29A92986316E26813100302000C60009
:10034800C700843182248131682AF319AC29AD2988
:10035800052A7319B029B129052A731EB429B529AC
:10036800052A25001108031DBA29BB29C72986318A
:100378006E26813140302000C6000130C70084312C
:1003880082248131682A503011060319CC29CD29DD
:10039800042A86316E26813124302000C6000330BD
:1003A800C70084318224813168302000CA00E430DB
:1003B800890BDC29CA0BDC29000080302000C6002C
:1003C8000230C70084318224813168302000CA009D
:1003D800E430890BED29CA0BED290000E03020003C
:1003E800C6000130C7008431822481316830200082
:1003F800CA00E430890BFE29CA0BFE290000BE2979
:10040800682A7319082A092A1D2AF31D0C2A0D2A9D
:100418001D2A731A102A112A1D2A86316E26813147
:1004280024302000C6000330C70084318224813183
:10043800682A7319202A212A2A2AF31D242A252A00
:100448002A2A731E282A292A2A2A112A731D2D2AA4
:100458002E2A372AF319312A322A372A731A352ACB
:10046800362A372A9E29731D3A2A3B2A4B2AF31922
:100478003E2A3F2A4B2A731E422A432A4B2A5030CF
:10048800250011060319492A4A2A682ACD29731D0D
:100498004E2A4F2A5B2AF31D522A532A5B2A731AC3
:1004A800562A572A5B2A86316B268131142A731DF6
:1004B8005E2A5F2A042AF31D622A632A042A731E0D
:1004C800662A672A042A572A0800043026001306D9
:1004D800031D6F2A702AF32A77082000AE007608D9
:1004E800AD0005302600930020003A0803197D2A44
:1004F8007E2A0A2BBA012B082D02AF002C082E3BAE
:10050800B0003008F9002F08F800F936F80CF93671
:10051800F80CF936F80C7808F0003208F9003108C0
:10052800F800F936F80CF936F80CF936F80C7808B2
:10053800F1001A307102031CA22AA32AA62A22005B
:100548000E12A82A22000E16710870020318AD2A8E
:10055800AE2AB32A700871022000BC00B72A7108BD
:1005680070022000BC003908031DBB2ABC2AC62A19
:1005780010303C020318C12AC22AF22AB901B90A6A
:10058800BB010A2B10303C020318CB2ACC2AD92AEB
:100598000130F8003B0AD12AF835890BD02A7808AF
:1005A800FF3AF9007908F205E42A0130F8003B0A1D
:1005B800DE2AF835890BDD2A7808F9007908F20473
:1005C8000130F8007808BB0708303B02031CED2A0D
:1005D800EE2AF22AB9010130C4000A2B0A2B053091
:1005E8001306031DF82AF92A0A2B77082000AC0005
:1005F8007608AB0004302600930020002D082B025B
:10060800B1002E082C3BB200BA01BA0A080020003B
:100618004408031D102B112B122B782BC4014D2BD2
:10062800C8307206031D192B1A2B782B0130C6000F
:100638004608BD077208A000782B8B307206031D90
:10064800262B272B2E2B7208A1000130C600460846
:10065800BD07782BBD01782B7208A200292B7208E0
:10066800A300292B7208A400292B7208A500292BA6
:100678007208A600292B7208A700292B7208A80067
:10068800292B7208A900292B7208AA000130C3007F
:100698002E2B3D08C600C7014708003A0319552B01
:1006A8002E2B4608003A0319142B013A0319212B63
:1006B800033A0319302B013A0319332B073A03196C
:1006C800362B013A0319392B033A03193C2B013A0B
:1006D80003193F2B0F3A0319422B013A0319452BF3
:1006E800033A0319482B2E2B080020002208F40097
:1006F8002308C500C7014308031D832B842B852BC2
:10070800CC2BC301741D892B8A2B8B2BC716F41D88
:100718008E2B8F2B902B4716741E932B942B952B77
:10072800C715F41E982B992B9A2B4715C51E9D2B80
:100738009E2B9F2BC714451FA22BA32BA42B47141A
:100748004708CD3E840083300318013E8500000829
:10075800C6002A0846060319B22BB32BB52BC001D5
:10076800CC2BC83020060319BA2BBB2BBE2BA001FB
:10077800C001CC2B8B3021060319C32BC42BC72BEC
:10078800A101C001CC2B4708F300C201C001C00A77
:1007980008004C349F34ED343E346634B534C734E5
:1007A800143459348A34F8342B347334A034D234A2
:1007B80001348E345D342F34FC34A434773405345A
:1007C800D6349B3448343A34E934B1346234103482
:1007D800C3342D34FE348C345F340734D434A63417
:1007E80075343834EB3499344A341234C134B33460
:1007F8006034EF343C344E349D34C534163464349C
:10080800B734FA3429345B348834D034033471343F
:10081800A23483310B2384318331792384318531A8
:10082800162584318531272584312C2C853149259D
:100838008431462C853168258431462C85315925EB
:100848008431462C853177258431462C0000462C8E
:1008580020004008CB00CC014C08003A0319352C85
:100868002A2C4B08003A03192A2C013A03191A2C8E
:10087800033A03191E2C013A0319222C073A0319CB
:10088800262C2A2C08002200900101308C002030F0
:100898008D0010308E00083021009000FC308C0054
:1008A800FE308D00EB308E001E3023008D003F306F
:1008B8008C002400900120308D0021009513220027
:1008C8009D01080020004708C9004608C800C9362D
:1008D800C80CC936C80C48082600980020004608ED
:1008E8000339C8000430C835890B772C26001A084C
:1008F800CF392000480426009A0008002000470845
:10090800C9004608C800C936C80CC936C80C48080A
:1009180025009100200046080339C8000430C83576
:10092800890B932C25001308CF3920004804250093
:10093800930008008431472484318531D7258431D8
:100948008631612684318531B125843186311B2673
:1009580084318631342684318531ED2584318531E1
:10096800A425843185310225843108000030200017
:10097800C600C70084318224843100302000C600BC
:10098800C70084316624843186316E268431003074
:1009980020008D1A0130BF00863195268431080069
:1009A8000B117508200095000130B3070030B43DE5
:1009B800003034020A3003193302031CE42CE52CFE
:1009C800EB2C8531BE2584312000B301B401080029
:1009D80084319E24843186302000C6000530C7004B
:1009E8008631482684318431BA2484318B170B1719
:1009F80084310D248431FC2C8031262821001508EF
:100A0800C039143895000630200095000630F500EE
:100A18000B118B169730C6000630C7008631482662
:100A280085310800063020002206031D1C2D1D2DCF
:100A3800262DD5302A06031D222D232D262D0330E1
:100A4800C000C2010800023020002206031D2D2D1F
:100A58002E2D372DB4302A06031D332D342D372D76
:100A68000430C000C20108002000181D3C2D3D2D97
:100A7800442D181047089700460896001814482D6A
:100A8800470897004608960008008531E325853118
:100A9800003A0319502D512D552D80313E208531B6
:100AA800582D8131872185310800863165268531A9
:100AB80086316E2685318631242685318531F725A4
:100AC80085312000C00108008631652685318631D0
:100AD8006E2685318631002685318531F7258531A9
:100AE8002000C00108008631682685318631242619
:100AF800853186316E26853186312C268531200058
:100B0800C00108000130F60076082000C207C8308E
:100B18004202031C902D912D942D0230C000C20179
:100B280008002000131226001108FA001208FB0022
:100B38007B08F7007A08F6008231692285310800BF
:100B48001030200099009701960111101708B8007D
:100B58001608B7000130980008000C3025009300F3
:100B68009501803094000130960092019101FC308B
:100B78009E0508002000350836040319C42DC52D2C
:100B8800CA2D36088A0035080A0085310800003069
:100B9800200091180130C60046080319D42DD52D20
:100BA800D62D91100800703021009900980122007C
:100BB800960121001A1FE12DE22DDD2D08002000ED
:100BC8003F03031DE82DE92DEB2D0130EC2D0030FE
:100BD80008000530260093009201910120001312AD
:100BE80021001316080050302000C6000030C7004E
:100BF800843166248531080024302000C600033083
:100C0800C700843182248631080024302000C600C1
:100C18000330C70084316624863108002000380874
:100C2800C7003708C60085313825863108000C30E2
:100C380026009A00980199013F3025009E0508007A
:100C480000302000C600C7008431822486310800A5
:100C580000302000C600C7008431662486310800B1
:100C6800C83020009B009A01911007309C000800B2
:100C7800640080010131890B3D2E003420001608E4
:100C8800C7001708C600080020004708B600460835
:100C9800B50008002000C60046089A000800200099
:100CA800C60046089B0008002000C60046089500BC
:100CB80008007508200095000800163021009700EC
:100CC800080022008C14080022008C100800220062
:100CD8000C10080022000C14080020001C11080049
:100CE80020001C15080020001A0808002000181011
:100CF800080020001814080020009915080020009A
:100D0800110808002000190808002000150808002C
:100D1800FF340734043405340B34193410348B345D
:080D2800C834080008000800AF
:020000040001F9
:04000E00E43FFF1FAD
:00000001FF
