:020000040000FA
:0400000080312628FD
:100008007E1480318B1E09280A2812280B1D0D2802
:100018000E2812288331A923803124280B1F152884
:10002800162824282100131E1A281B2824282000FB
:10003800131E1F28202824288331F52380312428E3
:100048007E10090080312828F001F101F201F30146
:10005800F401F5012030840000308500243084311B
:100068005E2480317E1020008231862A20003F08DD
:10007800C73E840082300318013E85000008C9008D
:100088002A084906031949284A284B284829BE0145
:10009800BF1E4F285028532822008C1455282200B0
:1000A8008C102000BF1959285A286C283F195D2840
:1000B8005E286C283F1A612862286C2822000C14DC
:1000C80000302000C400C5008331742380313729F3
:1000D800BF196F287028CE283F1973287428CE2896
:1000E8003F1E77287828CE2825001108031D7D2873
:1000F8007E28892822000C1440302000C4000130DA
:10010800C500833174238031372950301106031913
:100118008E288F28CD2822000C1424302000C400FB
:100128000330C50083317423803168302000C80053
:10013800E430890B9D28C80B9D28000080302000E2
:10014800C4000230C5008331742380316830200038
:10015800C800E430890BAE28C80BAE280000E03098
:100168002000C4000130C500833174238031683019
:100178002000C800E430890BBF28C80BBF28000046
:1001880040302000C4000130C50083317423803121
:10019800372937293F19D128D228E528BF1DD52866
:1001A800D628E5283F1AD928DA28E52822000C1491
:1001B80024302000C4000330C5008331742380310B
:1001C80037293F19E828E928F428BF1DEC28ED282D
:1001D800F4283F1EF028F128F42822000C14DC280B
:1001E8003F1DF728F8280329BF19FB28FC280329F5
:1001F8003F1AFF280029032922000C1464283F1DF8
:10020800062907291929BF190A290B2919293F1E67
:100218000E290F291929503025001106031915290F
:100228001629372922000C1491283F1D1C291D2945
:100238002829BF1D2029212928293F1A24292529B1
:10024800282922000C10DC283F1D2B292C29CD2819
:10025800BF1D2F293029CD283F1E33293429CD2809
:1002680022000C10DC282000CA014A08203E860023
:10027800870181010130C8004808CA070B304A02CB
:10028800031C472948293929080004302600130689
:10029800031D4F295029E6297708F1007608F00058
:1002A8000530930020003903031D5B295C29142ABB
:1002B800B9012C087102031D63292B087002031C65
:1002C800662967296E292B087002AD002C08713B3E
:1002D800AE007A292C08F9002B08F800F809F9096A
:1002E80070087807AD007108793DAE003008F90054
:1002F8002F08F800F936F80CF936F80CF936F80C2E
:100308007808BB002E08F9002D08F800F936F80C1B
:10031800F936F80CF936F80C7808F20072083B0246
:100328000318972998299C293B087202BA009F292B
:1003380072083B02BA003808031DA329A429B3296F
:1003480022000E16103020003A020318AC29AD29FD
:10035800142AB801B80AB70122000E12142A103064
:100368003A020318B829B929C92922000E12013006
:10037800F8002000370AC129F835890BC029780808
:10038800FF3AF9007908F405D72922000E16013042
:10039800F8002000370AD129F835890BD0297808C8
:1003A800F9007908F4040130F8007808B707083034
:1003B8003702031CE029E129E529B8010130C3000F
:1003C800142A142A05301306031DEB29EC29142AD4
:1003D80077082000AC007608AB00043026009300B4
:1003E800710820002C02031DFB2970082B02031C36
:1003F800FE29FF29062A70082B02AF0071082C3B42
:10040800B000122A7108F9007008F800F809F90913
:100418002B087807AF002C08793DB000B901B90A5C
:10042800080020004303031D1A2A1B2A852AC3013A
:10043800622AC8307406031D222A232A282AC101E9
:10044800C10A7408A000852AC101852A8B30740668
:10045800031D2F2A302A282A7408A1000230C1005F
:10046800852A7408A2000330C100852A7408A300F5
:100478000430C100852A7408A4000530C100852A0B
:100488007408A5000630C100852A7408A600073044
:10049800C100852A7408A7000830C100852A74089D
:1004A800A8000930C100852A7408A9000A30C100D3
:1004B800852A7408AA00C201C20A282A4108003AFB
:1004C80003191D2A013A03192A2A033A0319352A5E
:1004D800013A03193A2A073A03193F2A013A03193C
:1004E800442A033A0319492A013A03194E2A0F3AB2
:1004F8000319532A013A0319582A033A03195D2AA2
:10050800282A0800833190238231E6302000C40075
:100518000330C5008431642482318B170B170030F7
:100528002000C400C50083317423823122000C14DA
:100538008431A2248231823115228231833107230A
:10054800823183313823823120003C08031DAD2AD3
:10055800AE2AB92A3D03031DB22AB32AB52ABD0122
:100568009F2A80313A2082319F2ABC012430C4005E
:100578000330C50083317423823122000C148C149B
:100588009F2A803126284C349F34ED343E3466341B
:10059800B534C734143459348A34F8342B347334AA
:1005A800A034D23401348E345D342F34FC34A43476
:1005B80077340534D6349B3448343A34E934B1348A
:1005C80062341034C3342D34FE348C345F34073431
:1005D800D434A63475343834EB3499344A3412346C
:1005E800C134B3346034EF343C344E349D34C534B4
:1005F80016346434B734FA3429345B348834D0344C
:1006080003347134A23420002208F3002308C00008
:10061800BF01731D102B112B132BBF16142BBF12E8
:10062800F31D172B182B1A2B3F161B2B3F12731E6B
:100638001E2B1F2B212BBF15222BBF11F31E252B81
:10064800262B282B3F15292B3F11C01E2C2B2D2B79
:100658002F2BBF14302BBF10401F332B342B362BBE
:100668003F14372B3F100800063020002206031DD8
:100678003E2B3F2B552BD5302A06031D442B452BEB
:10068800552B22008C142000BD01BD0A0030C40087
:10069800C50083317423833122000C142000BE016D
:1006A800562BBD0108002200900101308C008D01FD
:1006B80010308E00083021009000FC308C00FF3094
:1006C8008D00FB308E003F3023008D003F308C00C2
:1006D800240090018D012100951722009D0108003A
:1006E80020004508C7004408C600C736C60CC736F0
:1006F800C60C460825009100200044080339C600AE
:100708000430C635890B852B25001308CF39200006
:100718004604250093000800833157238331843130
:100728002B24833184317F24833184311124833114
:100738008431432483318431562483318431042421
:1007480083318331C123833108000B1175082000E0
:1007580095000130B1070030B23D003032020A3056
:1007680003193102031CB92BBA2BC02B84311E2468
:1007780083312000B101B201080021001508C039F9
:10078800143895000630200095000630F5000B114E
:100798008B16A430C4000430C5008431642483312E
:1007A80008002000181DD92BDA2BE12B181045085A
:1007B8009700440896001814E52B4508970044084C
:1007C800960008000130F60076082000BE07C83001
:1007D8003E02031CF02BF12BF42BBC01BC0ABE011A
:1007E80008002000131226001108FA001208FB0066
:1007F8007B08F7007A08F600813149218331080027
:100808001030200099009701960111101708B600C2
:100818001608B5000130980008000C302500930038
:100828009501803094000130960092019101FC30CE
:100838009E0508002000330834040319242C252CB5
:100848002A2C34088A0033080A00843108007030E2
:100858002100990098012200960121001A1F352CC9
:10086800362C312C08000030200091180130C400CB
:1008780044080319402C412C422C911008000530E3
:1008880026009300920191012000131221001316F3
:10089800080020003608C5003508C4008331D52378
:1008A80084310800C83020009B009A01911007305D
:1008B8009C000800640080010131890B5F2C003422
:1008C80020004508B4004408B300080020001608BA
:1008D800C5001708C40008002000C40044089A0096
:1008E80008002000C40044089B0008002000C40041
:1008F8004408950008001630210097000800750884
:1009080020009500080020001C11080020001C157C
:10091800080020001A08080020001810080020000D
:100928001814080020009915080020001108080074
:100938002000190808002000150808000800080011
:020948000800A5
:020000040001F9
:04000E00C43FFF1FCD
:00000001FF
